{
  "_format": "hh-sol-artifact-1",
  "contractName": "ConfidentialERC20",
  "sourceName": "contracts/ConfidentialERC20.sol",
  "abi": [
    {
      "inputs": [
        {
          "internalType": "string",
          "name": "_name",
          "type": "string"
        },
        {
          "internalType": "string",
          "name": "_symbol",
          "type": "string"
        }
      ],
      "stateMutability": "nonpayable",
      "type": "constructor"
    },
    {
      "anonymous": false,
      "inputs": [
        {
          "indexed": true,
          "internalType": "address",
          "name": "owner",
          "type": "address"
        },
        {
          "indexed": true,
          "internalType": "address",
          "name": "spender",
          "type": "address"
        }
      ],
      "name": "Approval",
      "type": "event"
    },
    {
      "anonymous": false,
      "inputs": [
        {
          "indexed": true,
          "internalType": "address",
          "name": "account",
          "type": "address"
        },
        {
          "indexed": false,
          "internalType": "uint64",
          "name": "balance",
          "type": "uint64"
        }
      ],
      "name": "BalanceDecrypted",
      "type": "event"
    },
    {
      "anonymous": false,
      "inputs": [
        {
          "indexed": true,
          "internalType": "uint256",
          "name": "requestId",
          "type": "uint256"
        },
        {
          "indexed": true,
          "internalType": "address",
          "name": "requester",
          "type": "address"
        }
      ],
      "name": "DecryptionRequest",
      "type": "event"
    },
    {
      "anonymous": false,
      "inputs": [
        {
          "indexed": true,
          "internalType": "address",
          "name": "to",
          "type": "address"
        },
        {
          "indexed": false,
          "internalType": "uint64",
          "name": "amount",
          "type": "uint64"
        }
      ],
      "name": "Mint",
      "type": "event"
    },
    {
      "anonymous": false,
      "inputs": [
        {
          "indexed": true,
          "internalType": "address",
          "name": "from",
          "type": "address"
        },
        {
          "indexed": true,
          "internalType": "address",
          "name": "to",
          "type": "address"
        }
      ],
      "name": "Transfer",
      "type": "event"
    },
    {
      "inputs": [
        {
          "internalType": "address",
          "name": "spender",
          "type": "address"
        },
        {
          "internalType": "einput",
          "name": "encryptedAmount",
          "type": "bytes32"
        },
        {
          "internalType": "bytes",
          "name": "inputProof",
          "type": "bytes"
        }
      ],
      "name": "approve",
      "outputs": [],
      "stateMutability": "nonpayable",
      "type": "function"
    },
    {
      "inputs": [],
      "name": "decimals",
      "outputs": [
        {
          "internalType": "uint8",
          "name": "",
          "type": "uint8"
        }
      ],
      "stateMutability": "view",
      "type": "function"
    },
    {
      "inputs": [
        {
          "internalType": "uint256",
          "name": "",
          "type": "uint256"
        }
      ],
      "name": "decryptionRequester",
      "outputs": [
        {
          "internalType": "address",
          "name": "",
          "type": "address"
        }
      ],
      "stateMutability": "view",
      "type": "function"
    },
    {
      "inputs": [
        {
          "internalType": "address",
          "name": "",
          "type": "address"
        }
      ],
      "name": "latestDecryptedBalance",
      "outputs": [
        {
          "internalType": "uint64",
          "name": "",
          "type": "uint64"
        }
      ],
      "stateMutability": "view",
      "type": "function"
    },
    {
      "inputs": [
        {
          "internalType": "address",
          "name": "to",
          "type": "address"
        },
        {
          "internalType": "uint64",
          "name": "amount",
          "type": "uint64"
        }
      ],
      "name": "mint",
      "outputs": [],
      "stateMutability": "nonpayable",
      "type": "function"
    },
    {
      "inputs": [],
      "name": "name",
      "outputs": [
        {
          "internalType": "string",
          "name": "",
          "type": "string"
        }
      ],
      "stateMutability": "view",
      "type": "function"
    },
    {
      "inputs": [
        {
          "internalType": "uint256",
          "name": "requestId",
          "type": "uint256"
        },
        {
          "internalType": "uint64",
          "name": "decryptedBalance",
          "type": "uint64"
        }
      ],
      "name": "onBalanceDecrypted",
      "outputs": [],
      "stateMutability": "nonpayable",
      "type": "function"
    },
    {
      "inputs": [],
      "name": "owner",
      "outputs": [
        {
          "internalType": "address",
          "name": "",
          "type": "address"
        }
      ],
      "stateMutability": "view",
      "type": "function"
    },
    {
      "inputs": [],
      "name": "requestBalanceDecryption",
      "outputs": [
        {
          "internalType": "uint256",
          "name": "",
          "type": "uint256"
        }
      ],
      "stateMutability": "nonpayable",
      "type": "function"
    },
    {
      "inputs": [],
      "name": "symbol",
      "outputs": [
        {
          "internalType": "string",
          "name": "",
          "type": "string"
        }
      ],
      "stateMutability": "view",
      "type": "function"
    },
    {
      "inputs": [],
      "name": "totalSupply",
      "outputs": [
        {
          "internalType": "uint64",
          "name": "",
          "type": "uint64"
        }
      ],
      "stateMutability": "view",
      "type": "function"
    },
    {
      "inputs": [
        {
          "internalType": "address",
          "name": "to",
          "type": "address"
        },
        {
          "internalType": "einput",
          "name": "encryptedAmount",
          "type": "bytes32"
        },
        {
          "internalType": "bytes",
          "name": "inputProof",
          "type": "bytes"
        }
      ],
      "name": "transfer",
      "outputs": [],
      "stateMutability": "nonpayable",
      "type": "function"
    },
    {
      "inputs": [
        {
          "internalType": "address",
          "name": "to",
          "type": "address"
        },
        {
          "internalType": "euint64",
          "name": "amount",
          "type": "uint256"
        }
      ],
      "name": "transferEncrypted",
      "outputs": [],
      "stateMutability": "nonpayable",
      "type": "function"
    },
    {
      "inputs": [
        {
          "internalType": "address",
          "name": "from",
          "type": "address"
        },
        {
          "internalType": "address",
          "name": "to",
          "type": "address"
        },
        {
          "internalType": "einput",
          "name": "encryptedAmount",
          "type": "bytes32"
        },
        {
          "internalType": "bytes",
          "name": "inputProof",
          "type": "bytes"
        }
      ],
      "name": "transferFrom",
      "outputs": [],
      "stateMutability": "nonpayable",
      "type": "function"
    }
  ],
  "bytecode": "0x608060405234801562000010575f80fd5b5060405162001923380380620019238339810160408190526200003391620002fb565b620001af620000d3604080516080810182525f808252602082018190529181018290526060810191909152506040805160808101825273fee8407e2f5e3ee68ad77cae98c434e637f516e5815273687408ab54661ba0b4aef3a44156c616c6955e07602082015273fb03be574d14c256d56f09a198b586bdfc0a9de291810191909152739d6891a6240d6130c54ae243d8005063d05fe14b606082015290565b80517fed8d60e34876f751cc8b014c560745351147d9de11b9347c854e881b128ea60080546001600160a01b03199081166001600160a01b039384161790915560208301517fed8d60e34876f751cc8b014c560745351147d9de11b9347c854e881b128ea6018054831691841691909117905560408301517fed8d60e34876f751cc8b014c560745351147d9de11b9347c854e881b128ea6028054831691841691909117905560608301517fed8d60e34876f751cc8b014c560745351147d9de11b9347c854e881b128ea6038054909216921691909117905550565b7f93ab6e17f2c461cce6ea5d4ec117e51dda77a64affc2b2c05f8cd440def0e70080546001600160a01b0319167333347831500f1e73f0cccbb95c9f86b94d7b1123179055600a620002028382620003eb565b50600b620002118282620003eb565b5050600c8054600160401b600160e01b03191633680100000000000000000217905550620004b7565b634e487b7160e01b5f52604160045260245ffd5b5f82601f8301126200025e575f80fd5b81516001600160401b03808211156200027b576200027b6200023a565b604051601f8301601f19908116603f01168101908282118183101715620002a657620002a66200023a565b8160405283815260209250866020858801011115620002c3575f80fd5b5f91505b83821015620002e65785820183015181830184015290820190620002c7565b5f602085830101528094505050505092915050565b5f80604083850312156200030d575f80fd5b82516001600160401b038082111562000324575f80fd5b62000332868387016200024e565b9350602085015191508082111562000348575f80fd5b5062000357858286016200024e565b9150509250929050565b600181811c908216806200037657607f821691505b6020821081036200039557634e487b7160e01b5f52602260045260245ffd5b50919050565b601f821115620003e657805f5260205f20601f840160051c81016020851015620003c25750805b601f840160051c820191505b81811015620003e3575f8155600101620003ce565b50505b505050565b81516001600160401b038111156200040757620004076200023a565b6200041f8162000418845462000361565b846200039b565b602080601f83116001811462000455575f84156200043d5750858301515b5f19600386901b1c1916600185901b178555620004af565b5f85815260208120601f198616915b82811015620004855788860151825594840194600190910190840162000464565b5085821015620004a357878501515f19600388901b60f8161c191681555b505060018460011b0185555b505050505050565b61145e80620004c55f395ff3fe608060405234801561000f575f80fd5b50600436106100e5575f3560e01c80637b7e0a5a116100885780639a094352116100635780639a094352146101ff578063b32c100114610212578063c4224c1914610225578063f203ed5a14610238575f80fd5b80637b7e0a5a146101b25780638da5cb5b146101c557806395d89b41146101f7575f80fd5b806318160ddd116100c357806318160ddd1461015c5780632893c5b01461016f578063313ce56714610182578063767aa3c21461019c575f80fd5b806306fdde03146100e95780630b7831c71461010757806310053ebd1461011c575b5f80fd5b6100f1610260565b6040516100fe919061105a565b60405180910390f35b61011a610115366004611087565b6102ec565b005b61014461012a3660046110c7565b60106020525f90815260409020546001600160401b031681565b6040516001600160401b0390911681526020016100fe565b600c54610144906001600160401b031681565b61011a61017d3660046110e0565b6103ea565b61018a600681565b60405160ff90911681526020016100fe565b6101a461053a565b6040519081526020016100fe565b61011a6101c036600461114c565b6105fe565b600c546101df90600160401b90046001600160a01b031681565b6040516001600160a01b0390911681526020016100fe565b6100f1610652565b61011a61020d3660046111a1565b61065f565b61011a61022036600461114c565b610790565b61011a61023336600461120a565b6107dd565b6101df610246366004611232565b600f6020525f90815260409020546001600160a01b031681565b600a805461026d90611249565b80601f016020809104026020016040519081016040528092919081815260200182805461029990611249565b80156102e45780601f106102bb576101008083540402835291602001916102e4565b820191905f5260205f20905b8154815290600101906020018083116102c757829003601f168201915b505050505081565b7f93ab6e17f2c461cce6ea5d4ec117e51dda77a64affc2b2c05f8cd440def0e700546001600160a01b03163314610321575f80fd5b5f828152600f60205260409020546001600160a01b03168061037c5760405162461bcd60e51b815260206004820152600f60248201526e155b9adb9bdddb881c995c5d595cdd608a1b60448201526064015b60405180910390fd5b6001600160a01b0381165f81815260106020908152604091829020805467ffffffffffffffff19166001600160401b03871690811790915591519182527f7cb85d5e1069bc6224c10d4d04714fe1f99af89c8bead48d7954a5d7d30ce2ca91015b60405180910390a2505050565b600c54600160401b90046001600160a01b031633146104375760405162461bcd60e51b81526020600482015260096024820152682737ba1037bbb732b960b91b6044820152606401610373565b600c80548291905f906104549084906001600160401b0316611295565b92506101000a8154816001600160401b0302191690836001600160401b031602179055505f61048b826001600160401b03166107ec565b6001600160a01b0384165f908152600d60205260409020549091506104b090826107fe565b6001600160a01b0384165f908152600d602052604090208190556104d49030610833565b6001600160a01b0383165f908152600d60205260409020546104f69084610833565b6040516001600160401b03831681526001600160a01b038416907f9109de113672aaca72ede8bc906f7aafabee865311ac020fb15c71edf94a0a01906020016103dd565b335f908152600d60205260408082205481516001808252818401909352909183919081602001602082028036833701905050905081815f81518110610581576105816112bc565b60209081029190910101525f6105ab82630b7831c760e01b836105a54260646112d0565b5f61083d565b5f818152600f602052604080822080546001600160a01b0319163390811790915590519293509183917f86f67a7073f481b41381b761cae7cf6002d82840e124304fb561420969f5400b91a39392505050565b5f61063e8484848080601f0160208091040260200160405190810160405280939291908181526020018383808284375f9201919091525061095492505050565b905061064b338683610961565b5050505050565b600b805461026d90611249565b5f61069f8484848080601f0160208091040260200160405190810160405280939291908181526020018383808284375f9201919091525061095492505050565b6001600160a01b0387165f908152600e602090815260408083203384529091528120549192506106cf8383610ac3565b90505f6106e582856106e05f6107ec565b610af1565b90506106f18382610b05565b6001600160a01b038a165f908152600e6020908152604080832033845290915290208190556107209030610833565b6001600160a01b0389165f908152600e6020908152604080832033845290915290205461074d908a610833565b6001600160a01b0389165f908152600e602090815260408083203380855292529091205461077a91610833565b610785898983610961565b505050505050505050565b5f6107d08484848080601f0160208091040260200160405190810160405280939291908181526020018383808284375f9201919091525061095492505050565b905061064b338683610b33565b6107e8338383610961565b5050565b5f6107f8826005610c07565b92915050565b5f826108105761080d5f6107ec565b92505b816108215761081e5f6107ec565b91505b61082c83835f610c9a565b9392505050565b6107e88282610d47565b5f805160206113e9833981519152805460405163155f840160e21b81525f92916001600160a01b03169063557e10049061087b908a9060040161131d565b5f604051808303815f87803b158015610892575f80fd5b505af11580156108a4573d5f803e3d5ffd5b505050505f6108d07f93ab6e17f2c461cce6ea5d4ec117e51dda77a64affc2b2c05f8cd440def0e70090565b8054604051634c0d927760e01b81529192506001600160a01b031690634c0d927790610908908b908b908b908b908b9060040161132f565b6020604051808303815f875af1158015610924573d5f803e3d5ffd5b505050506040513d601f19601f820116820180604052508101906109489190611371565b98975050505050505050565b5f61082c83836005610dbd565b6001600160a01b0383165f908152600d6020526040812054610984908390610ac3565b90505f61099582846106e05f6107ec565b6001600160a01b0386165f908152600d60205260409020549091506109ba9082610b05565b6001600160a01b038087165f908152600d602052604080822093909355908616815220546109e890826107fe565b6001600160a01b038086165f908152600d60205260408082209390935590871681522054610a169030610833565b6001600160a01b0385165f908152600d6020526040902054610a389086610833565b6001600160a01b0384165f908152600d6020526040902054610a5a9030610833565b6001600160a01b0384165f908152600d6020526040902054610a7c9085610833565b836001600160a01b0316856001600160a01b03167f4853ae1b4d437c4255ac16cd3ceda3465975023f27cb141584cd9d44440fed8260405160405180910390a35050505050565b5f82610ad557610ad25f6107ec565b92505b81610ae657610ae35f6107ec565b91505b61082c83835f610ebb565b5f610afd848484610f1e565b949350505050565b5f82610b1757610b145f6107ec565b92505b81610b2857610b255f6107ec565b91505b61082c83835f610fb4565b6001600160a01b038381165f908152600e60209081526040808320938616835292905220819055610b648130610833565b6001600160a01b038084165f908152600e6020908152604080832093861683529290522054610b939084610833565b6001600160a01b038084165f908152600e6020908152604080832093861683529290522054610bc29083610833565b816001600160a01b0316836001600160a01b03167ff37f546c25e850257cc0c94f92bec94a17e2f0e884ddda268a25d8144b70eb6a60405160405180910390a3505050565b5f805f805160206113e98339815191526001810154604051631ce2e8d760e31b8152600481018790526001600160f81b031960f887901b1660248201529192506001600160a01b03169063e71746b8906044016020604051808303815f875af1158015610c76573d5f803e3d5ffd5b505050506040513d601f19601f82011682018060405250810190610afd9190611371565b5f808215610cad5750600160f81b610cb0565b505f5b5f805160206114098339815191525460405163f953e42760e01b81525f805160206113e9833981519152916001600160a01b03169063f953e42790610cfd90899089908790600401611388565b6020604051808303815f875af1158015610d19573d5f803e3d5ffd5b505050506040513d601f19601f82011682018060405250810190610d3d9190611371565b9695505050505050565b5f5f805160206113e98339815191528054604051631974142760e21b8152600481018690526001600160a01b0385811660248301529293509116906365d0509c906044015f604051808303815f87803b158015610da2575f80fd5b505af1158015610db4573d5f803e3d5ffd5b50505050505050565b5f80516020611409833981519152546040516302e817ff60e41b81525f915f805160206113e9833981519152916001600160a01b0390911690632e817ff090610e149088903390899060f88a901b906004016113a8565b6020604051808303815f875af1158015610e30573d5f803e3d5ffd5b505050506040513d601f19601f82011682018060405250810190610e549190611371565b81546040516346ce4e4960e11b8152600481018390523360248201529193506001600160a01b031690638d9c9c92906044015f604051808303815f87803b158015610e9d575f80fd5b505af1158015610eaf573d5f803e3d5ffd5b50505050509392505050565b5f808215610ece5750600160f81b610ed1565b505f5b5f80516020611409833981519152546040516334a6d7b960e11b81525f805160206113e9833981519152916001600160a01b03169063694daf7290610cfd90899089908790600401611388565b5f805f805160206113e9833981519152600181015460405163cb3b940760e01b81526004810188905260248101879052604481018690529192506001600160a01b03169063cb3b9407906064016020604051808303815f875af1158015610f87573d5f803e3d5ffd5b505050506040513d601f19601f82011682018060405250810190610fab9190611371565b95945050505050565b5f808215610fc75750600160f81b610fca565b505f5b5f8051602061140983398151915254604051638c14cc2160e01b81525f805160206113e9833981519152916001600160a01b031690638c14cc2190610cfd90899089908790600401611388565b5f81518084525f5b8181101561103b5760208185018101518683018201520161101f565b505f602082860101526020601f19601f83011685010191505092915050565b602081525f61082c6020830184611017565b80356001600160401b0381168114611082575f80fd5b919050565b5f8060408385031215611098575f80fd5b823591506110a86020840161106c565b90509250929050565b80356001600160a01b0381168114611082575f80fd5b5f602082840312156110d7575f80fd5b61082c826110b1565b5f80604083850312156110f1575f80fd5b6110fa836110b1565b91506110a86020840161106c565b5f8083601f840112611118575f80fd5b5081356001600160401b0381111561112e575f80fd5b602083019150836020828501011115611145575f80fd5b9250929050565b5f805f806060858703121561115f575f80fd5b611168856110b1565b93506020850135925060408501356001600160401b03811115611189575f80fd5b61119587828801611108565b95989497509550505050565b5f805f805f608086880312156111b5575f80fd5b6111be866110b1565b94506111cc602087016110b1565b93506040860135925060608601356001600160401b038111156111ed575f80fd5b6111f988828901611108565b969995985093965092949392505050565b5f806040838503121561121b575f80fd5b611224836110b1565b946020939093013593505050565b5f60208284031215611242575f80fd5b5035919050565b600181811c9082168061125d57607f821691505b60208210810361127b57634e487b7160e01b5f52602260045260245ffd5b50919050565b634e487b7160e01b5f52601160045260245ffd5b6001600160401b038181168382160190808211156112b5576112b5611281565b5092915050565b634e487b7160e01b5f52603260045260245ffd5b808201808211156107f8576107f8611281565b5f815180845260208085019450602084015f5b83811015611312578151875295820195908201906001016112f6565b509495945050505050565b602081525f61082c60208301846112e3565b60a081525f61134160a08301886112e3565b6001600160e01b031996909616602083015250604081019390935260608301919091521515608090910152919050565b5f60208284031215611381575f80fd5b5051919050565b92835260208301919091526001600160f81b031916604082015260600190565b8481526001600160a01b03841660208201526080604082018190525f906113d190830185611017565b905060ff60f81b831660608301529594505050505056feed8d60e34876f751cc8b014c560745351147d9de11b9347c854e881b128ea600ed8d60e34876f751cc8b014c560745351147d9de11b9347c854e881b128ea601a2646970667358221220a1e9f0f009b45f86c07f71f5ede126528fe89d1757a09bf5735904b215f3a0f664736f6c63430008180033",
  "linkReferences": {},
  "deployedLinkReferences": {}
}